:020000040800F2
:10000000B8060020CD01000839050008B904000831
:10001000350500083D030008050900080000000040
:100020000000000000000000000000003106000891
:1000300041030008000000003B0500083D070008E0
:10004000E7010008E7010008E7010008E7010008F0
:10005000E7010008E7010008E7010008E7010008E0
:10006000E7010008E7010008E7010008E7010008D0
:10007000E7010008E7010008E7010008E7010008C0
:10008000E7010008E7010008E7010008E7010008B0
:10009000E7010008E7010008E7010008E7010008A0
:1000A000E7010008E7010008E7010008E701000890
:1000B000A5070008E7010008E7010008E7010008BC
:1000C000E7010008E7010008E7010008E701000870
:1000D000E7010008E7010008E7010008E701000860
:1000E000E7010008E7010008E7010008E701000850
:1000F000E7010008E7010008E7010008E701000840
:10010000E7010008E7010008E7010008E70100082F
:10011000E7010008E7010008E7010008E70100081F
:10012000E7010008E7010008E7010008E70100080F
:1001300000F002F800F03AF80AA090E8000C8244BF
:100140008344AAF10107DA4501D100F02FF8AFF29C
:10015000090EBAE80F0013F0010F18BFFB1A43F0A5
:10016000010318470009000020090000103A24BFCD
:1001700078C878C1FAD8520724BF30C830C144BF0C
:1001800004680C607047000000230024002500264E
:10019000103A28BF78C1FBD8520728BF30C148BFEA
:1001A0000B6070471FB51FBD10B510BD00F06AF899
:1001B0001146FFF7F7FF00F0B5FB00F09CF803B421
:1001C000FFF7F2FF03BC00F09FFB000009488047E7
:1001D00009480047FEE7FEE7FEE7FEE7FEE7FEE729
:1001E000FEE7FEE7FEE7FEE704480549054A064B41
:1001F000704700004507000831010008B8000020E2
:10020000B8060020B8020020B802002070470000A5
:100210000FB4044910B503AA029800F009F810BC05
:100220005DF814FB3C0000207047704770470000E9
:10023000074B70B50D467B4400F011F80446284684
:1002400000F064FB10B14FF0FF3070BD204670BD70
:10025000DB06000001694A1C02610878704700B59E
:100260008FB0CDE901310021059105497944CDE9EF
:1002700003101146684600F02AF80FB000BD0000D8
:10028000E5FFFFFF754600F03FF8AE460500694602
:10029000534620F00700854618B020B5FFF7A4FFAD
:1002A000BDE820404FF000064FF000074FF0000877
:1002B0004FF0000B21F00701AC46ACE8C009ACE8F8
:1002C000C009ACE8C009ACE8C0098D4670472DE90B
:1002D000F04106460024D6E90170F56880463046B4
:1002E00003E04146B847641C3046A8470028F8D1CF
:1002F0002046BDE8F08110B50446AFF300802046EB
:10030000BDE81040FFF75BBF004870475400002075
:1003100008B50121202000F011F94020ADF80000BF
:1003200010208DF8030003208DF802006946024872
:1003300000F02EF808BD00000014014000BFFEE7E9
:100340007047000001B504490098086000BF0248EA
:1003500000680028FBD108BD3400002010B54FF420
:100360000070094908801820C87003208870074869
:1003700000F00EF84FF48060034908800420C87034
:10038000024800F005F810BD2800002000080140D8
:100390002DE9F0410246002500260020002300241C
:1003A000002791F803C00CF00F0591F803C00CF082
:1003B000100CBCF1000F03D091F802C04CEA050507
:1003C00091F800C0BCF1000F31D0146800202BE080
:1003D0004FF0010C0CFA00F3B1F800C00CEA030670
:1003E0009E4220D183004FF00F0C0CFA03F7BC4360
:1003F00005FA03FC4CEA040491F803C0BCF1280F91
:1004000006D14FF0010C0CFA00FCC2F814C00AE04F
:1004100091F803C0BCF1480F05D14FF0010C0CFA64
:1004200000FCC2F810C0401C0828D1D31460B1F8F9
:1004300000C0BCF1FF0F34DD546800202EE000F155
:10044000080C4FF0010808FA0CF3B1F800C00CEAF0
:1004500003069E4221D183004FF00F0C0CFA03F7E4
:10046000BC4305FA03FC4CEA040491F803C0BCF158
:10047000280F05D100F1080C08FA0CF8C2F8148016
:1004800091F803C0BCF1480F07D100F1080C4FF000
:10049000010808FA0CF8C2F81080401C0828CED3D6
:1004A0005460BDE8F0810246002093680B400BB118
:1004B000012000E00020704700BFFEE708B50121E1
:1004C000302000F03BF84FF40050ADF80000482019
:1004D0008DF8030069460548FFF75AFF0820ADF87C
:1004E000000069460248FFF753FF08BD00100140B5
:1004F0000014014008B50121282000F01FF8202039
:10050000ADF8000010208DF8030003208DF80200E4
:1005100069460648FFF73CFF4FF48050ADF80000F5
:1005200069460348FFF734FF08BD0000000C014096
:100530000014014000BFFEE77047704729B1064A2A
:1005400092690243044B9A6104E0034A9269824330
:10055000014B9A61704700000010024030B5002145
:100560000022002400232D4D6D6805F00C0121B1FF
:10057000042905D0082923D105E0294D056022E092
:10058000274D05601FE0254D6D6805F47012234D61
:100590006D6805F48034022505EB92421CB9214DAB
:1005A000554305600BE01D4D6D6805F400351DB128
:1005B0001C4D5543056002E0194D5543056002E0AE
:1005C000174D056000BF00BF144D6D6805F0F001C8
:1005D0000909154D6B5C0568DD4045600F4D6D6880
:1005E00005F4E061090A104D6B5C4568DD408560EB
:1005F0000A4D6D6805F46051C90A0B4D6B5C456886
:10060000DD40C560054D6D6805F44041890B074D1F
:100610006B5CC568B5FBF3F5056130BD00100240A9
:1006200000127A0000093D00140000202400002080
:100630007047000000BF0649098801F080010029C9
:10064000F9D0C0F30801024A121D11807047000062
:100650000038014010B500F001F810BD0CB50020C5
:10066000019000903348006840F4803031490860C0
:1006700000BF3048006800F4003000900198401C32
:100680000190009818B90198B0F5A06FF1D12948F0
:10069000006800F4003010B10120009001E000205B
:1006A00000900098012843D12348006840F01000D2
:1006B000214908600846006820F0030008600846E9
:1006C000006840F0020008601A4840681949486014
:1006D0000846406848600846406840F480604860CA
:1006E0000846406820F47C1048600846406840F4A2
:1006F000E81048600846006840F08070086000BF5D
:100700000C48006800F000700028F9D009484068E3
:1007100020F00300074948600846406840F00200A6
:10072000486000BF0348406800F00C000828F9D179
:100730000CBD0000001002400020024010B500F087
:1007400039F810BD10B51348006840F00100114998
:10075000086008464068104908400E49486008464D
:1007600000680E4908400B4908600846006820F4FC
:10077000802008600846406820F4FE0048604FF47E
:100780001F008860FFF766FF4FF0006004490860B3
:1007900010BD0000001002400000FFF8FFFFF6FE51
:1007A00008ED00E002480068401C014908607047FD
:1007B000300000200448006820B103480068401E53
:1007C00001490860704700003400002021B182898F
:1007D00042F40052828104E082894DF6FF731A4090
:1007E0008281704710B54FF4E1300D490860002058
:1007F00088810C20488100200881C88088800948B1
:1008000000F014F801210748FFF7E0FF044906480B
:1008100000F00CF801210448FFF7D8FF10BD0000DC
:100820004400002000380140004800402DE9F04716
:1008300086B005460E460024A24600BFA14600270A
:10084000B08900B100BF2F462C8A4CF6FF700440DF
:10085000F08804432C82AC894EF6F3100440B08833
:1008600031890843718908430443AC81AC8A4FF64F
:10087000FF400440B0890443AC8201A8FFF76EFE3C
:100880001F48874202D1DDF810A001E0DDF80CA07E
:10089000A88900F4004040B10AEBCA0000EB0A103E
:1008A00031684900B0FBF1F807E00AEBCA0000EB41
:1008B0000A1031688900B0FBF1F86420B8FBF0F051
:1008C00004012009642101FB1089A88900F400407B
:1008D00040B1322000EBC900B0FBF1F000F007009E
:1008E000044308E0322000EB09106421B0FBF1F072
:1008F00000F00F0004432C8106B0BDE8F087000033
:100900000038014000BFFEE700BFFEE701464FF0A0
:10091000FF30704770B504460D462046FFF78AFE4B
:1009200070BD00000EB53EA2D2E900109268CDE97C
:100930000102009100BF012144F20500FFF7FEFD16
:10094000FFF70CFDFFF74EFFFFF7E2FCFFF7D2FDCC
:10095000FFF7B4FD00BF354800684FF47A72B0FB72
:10096000F2F1B1F1807F01D301201DE021F07F4041
:10097000401E4FF0E022506150170F22002807DA86
:1009800013071D0E2A4B00F00F04241F1D5503E012
:1009900013071C0E274B1C5400BF00204FF0E02211
:1009A000906107201061002008B100BFFEE736E02B
:1009B0004FF400512048FFF776FD60B91F480078DA
:1009C00048B16420FFF7BEFC00201C4908701CA041
:1009D000FFF71EFC23E008211D48FFF764FD60B906
:1009E0001648007848B16420FFF7ACFC002013499A
:1009F000087018A0FFF70CFC11E01048007870B9DF
:100A00004FF400510C48FFF74EFD012807D1082193
:100A10000F48FFF748FD012801D108490870C7E7D2
:100A200068656C6C6F20746F6D0D0A00000000200B
:100A300018ED00E000E400E0001001403800002064
:100A40004B455931206861686168610D0A000000FA
:100A5000001401404B455932206861686168610D9E
:100A60000A000000840A0008000000204400000082
:100A70006C010008C80A0008440000207406000049
:100A80008801000800A24A040000000000000000E5
:100A90000102030406070809000000000102030424
:100AA000010203040607080902040608000000000A
:100AB0000000000000000000000000000100000035
:080AC00000000000000000002E
:0400000508000131BD
:00000001FF
