:020000040800F2
:10000000084A0020750200088F09000887090008C7
:100010008B09000885070008B10D000800000000EA
:10002000000000000000000000000000DD010008EA
:100030003908000800000000210200080D20000817
:100040008F0200088F0200088F0200088F0200084C
:100050008F0200088F0200088F0200088F0200083C
:100060008F0200088F0200088F0200088F0200082C
:100070008F0200088F0200088F0200088F0200081C
:100080008F0200088F0200088F0200088F0200080C
:100090008F0200088F0200088F0200088F020008FC
:1000A0008F0200088F0200088F0200088F020008EC
:1000B000F10B00088F0200088F0200088F02000871
:1000C0008F0200088F0200088F0200088F020008CC
:1000D0008F0200088F0200088F0200088F020008BC
:1000E0008F0200088F0200088F0200088F020008AC
:1000F0008F0200088F0200088F0200088F0200089C
:100100008F0200088F0200088F0200088F0200088B
:100110008F0200088F0200088F0200088F0200087B
:100120008F0200088F0200088F0200088F0200086B
:1001300000F002F800F042F80AA090E8000C8244B7
:100140008344AAF10107DA4501D100F037F8AFF294
:10015000090EBAE80F0013F0010F18BFFB1A43F0A5
:1001600001031847C8260000E8260000103A24BF03
:1001700078C878C1FAD8520724BF30C830C144BF0C
:1001800004680C607047000000230024002500264E
:10019000103A28BF78C1FBD8520728BF30C148BFEA
:1001A0000B607047642900F0BD80732900F00D8258
:1001B000002070471FB51FBD10B510BD00F0AFFA8D
:1001C0001146FFF7F7FF00F007FF00F0CDFA03B488
:1001D000FFF7F2FF03BC00F0EDFD0000224B1968B1
:1001E0000868B0E8F00F80F30988BFF36F8F4FF015
:1001F000000080F311884EF00D0E704700000000E3
:1002000006480068006880F3088862B661B6BFF3EC
:100210004F8FBFF36F8F00DF00BF00BF08ED00E01E
:10022000EFF30980BFF36F8F0F4B1A6820E9F00FCF
:10023000106008B54FF0BF0080F31188BFF34F8FF7
:10024000BFF36F8F01F098FE4FF0000080F311882C
:10025000BDE8084019680868B0E8F00F80F3098825
:10026000BFF36F8F704700BF3C000020EFF30580A5
:10027000704700000948804709480047FEE7FEE74D
:10028000FEE7FEE7FEE7FEE7FEE7FEE7FEE7FEE746
:1002900004480549054A064B70470000910B0008C9
:1002A0003101000808460020084A002008480020C4
:1002B00008480020704700000FB4044910B503AA95
:1002C000029800F087F910BC5DF814FB34000020A0
:1002D00070B50C460546012A05D02878800600D561
:1002E000EA69002302E0012305E05B1C934202D28D
:1002F000E05C0028F9D1A869E618C01AA861286A4C
:10030000184428622846AFF3008004E0D5E90121B3
:1003100014F8010B9047B442F8D32846AFF300809D
:1003200070BD00002DE9F0410646002410687529D3
:10033000314616A510D0AFF30080002802DA404203
:1003400013A507E031688A0701D512A502E0490725
:1003500004D511A5012401E0AFF3008000210A2299
:1003600006F1240709E0B0FBF2FCB0FBF2F302FB5C
:100370001C00303078541846491C0028F3D123461D
:100380002A463046BDE8F04100F0B4B80000000055
:100390002D0000002B000000200000002DE9F0419E
:1003A0000F460546002028622846E968884770B352
:1003B000252805D0D5E901219047286A401CF2E79D
:1003C000E9682846002688476C2804460AD0682C2D
:1003D00008D04C2C35D06A2C31D0742C31D07A2CEA
:1003E0002FD016E0E968064628468847B042044602
:1003F00008D16C2E23D04FF480662846E9688847E0
:10040000044606E06C2E03D04FF4807601E01EE037
:100410004026E4B1A4F14100192802D8203446F462
:1004200000663A46214628462E60FFF7BBFE60B1C3
:10043000012808D0FF1D27F007070837B4E78026FA
:10044000DBE70026D9E73F1DAEE72046B2E7286A82
:10045000BDE8F081032A40F2308010F0030C00F078
:10046000158011F8013BBCF1020F624498BF11F8EE
:1004700001CB00F8013B38BF11F8013BA2F10402A7
:1004800098BF00F801CB38BF00F8013B11F003031F
:1004900000F0B280083AC0F0088051F8043B083AF6
:1004A00051F804CBA0E80810F5E7121D5CBF51F825
:1004B000043B40F8043BAFF30080D20724BF11F89F
:1004C000013B11F801CB48BF11F8012B24BF00F804
:1004D000013B00F801CB48BF00F8012B704702F048
:1004E000FF0343EA032242EA024200F0B9B8704730
:1004F000704770472DE9F0470D46994692460446ED
:1005000000F124080168880604D5E06921F0100193
:10051000216000E00120A84201DD471B00E0002728
:10052000A1697A1902EB0900081AA0612078C006B7
:1005300002D42046AFF30080002608E0D4E9012170
:100540001AF806009047206A401C761C20624E452F
:10055000F4DB2078C0060AD52046AFF3008006E021
:10056000D4E9012130209047206A401C2062381EC7
:10057000A7F10107F4DC07E0D4E9012118F8050030
:100580009047206A401C2062281EA5F10105F3DC7B
:100590002046AFF300802078000602D50220BDE897
:1005A000F0870120FBE710B5436913B1AFF300807A
:1005B00001E0FFF78DFE012010BD127800F124014B
:1005C0000A7000224A700122EDE711684FF0FF32F5
:1005D000E9E70000074B70B50D467B4400F065F875
:1005E0000446284600F026FC10B14FF0FF3070BDE5
:1005F000204670BD5F08000010B5203AC0F00B80A7
:10060000B1E81850203AA0E81850B1E81850A0E816
:100610001850BFF4F5AF5FEA027C24BFB1E8185070
:10062000A0E8185044BF18C918C0BDE810405FEAE0
:10063000827C24BF51F8043B40F8043B08BF70475C
:10064000D20728BF31F8023B48BF11F8012B28BF61
:1006500020F8023B48BF00F8012B70474FF0000222
:100660000429C0F0128010F0030C00F03380CCF1AC
:10067000040CBCF1020F18BF00F8012BA8BF20F832
:10068000022BA1EB0C0100F025B85FEAC17C24BF6E
:1006900000F8012B00F8012B48BF00F8012B704730
:1006A00001694A1C02610878704700B58FB0CDE936
:1006B00001310021059105497944CDE90310114626
:1006C0006846FFF76BFE0FB000BD0000E5FFFFFFBF
:1006D0004FF0000200B5134694469646203922BFDB
:1006E000A0E80C50A0E80C50B1F12001BFF4F7AF26
:1006F000090728BFA0E80C5048BF0CC05DF804EB08
:10070000890028BF40F8042B08BF704748BF20F875
:10071000022B11F0804F18BF00F8012B704775466F
:1007200000F02CF8AE4605006946534620F007005D
:10073000854618B020B5FFF7ABFDBDE820404FF06F
:1007400000064FF000074FF000084FF0000B21F0BB
:100750000701AC46ACE8C009ACE8C009ACE8C00988
:10076000ACE8C0098D46704710B50446AFF3008071
:100770002046BDE81040FFF72ABD00000048704742
:10078000A845002000BFFEE70AA0FFF795FD0FE097
:100790000B490CA0FFF790FD0F48006800F056FBD6
:1007A0000E48006800F052FB4FF47A7001F054FBE1
:1007B000EEE700003232323232320D0A0000000021
:1007C0001428000877656C636F6D6520746F205B7B
:1007D00025735D0D0A000000280000202400002081
:1007E0000AA0FFF769FD0FE00B490CA0FFF764FDBD
:1007F0000F48006800F02AFB0E48006800F026FB56
:100800004FF47A7001F028FBEEE70000313131310E
:1008100031310D0A000000000628000877656C637E
:100820006F6D6520746F205B25735D0D0A000000FD
:1008300028000020240000207047000010B54FF46D
:100840000070094908801820C87003208870074884
:1008500000F00EF84FF48060034908800420C8704F
:10086000024800F005F810BD140000200008014007
:100870002DE9F04102460025002600200023002437
:10088000002791F803C00CF00F0591F803C00CF09D
:10089000100CBCF1000F03D091F802C04CEA050522
:1008A00091F800C0BCF1000F31D0146800202BE09B
:1008B0004FF0010C0CFA00F3B1F800C00CEA03068B
:1008C0009E4220D183004FF00F0C0CFA03F7BC437B
:1008D00005FA03FC4CEA040491F803C0BCF1280FAC
:1008E00006D14FF0010C0CFA00FCC2F814C00AE06B
:1008F00091F803C0BCF1480F05D14FF0010C0CFA80
:1009000000FCC2F810C0401C0828D1D31460B1F814
:1009100000C0BCF1FF0F34DD546800202EE000F170
:10092000080C4FF0010808FA0CF3B1F800C00CEA0B
:1009300003069E4221D183004FF00F0C0CFA03F7FF
:10094000BC4305FA03FC4CEA040491F803C0BCF173
:10095000280F05D100F1080C08FA0CF8C2F8148031
:1009600091F803C0BCF1480F07D100F1080C4FF01B
:10097000010808FA0CF8C2F81080401C0828CED3F1
:100980005460BDE8F08100BFFEE700BFFEE770479E
:1009900029B1064A92690243044B9A6104E0034A72
:1009A00092698243014B9A61704700000010024037
:1009B00030B500210022002400232D4D6D6805F084
:1009C0000C0121B1042905D0082923D105E0294DC6
:1009D000056022E0274D05601FE0254D6D6805F498
:1009E0007012234D6D6805F48034022505EB9242A8
:1009F0001CB9214D554305600BE01D4D6D6805F494
:100A000000351DB11C4D5543056002E0194D55439D
:100A1000056002E0174D056000BF00BF144D6D6812
:100A200005F0F0010909154D6B5C0568DD40456076
:100A30000F4D6D6805F4E061090A104D6B5C456867
:100A4000DD4085600A4D6D6805F46051C90A0B4DA3
:100A50006B5C4568DD40C560054D6D6805F440413F
:100A6000890B074D6B5CC568B5FBF3F5056130BDBF
:100A70000010024000127A0000093D000000002032
:100A80001000002010B50446E1B2064800F08CF9D1
:100A900000BF4021034800F0E9F80128F9D12046C1
:100AA00010BD00000038014010B500F001F810BD85
:100AB0000CB50020019000903348006840F480306D
:100AC0003149086000BF3048006800F400300090F1
:100AD0000198401C0190009818B90198B0F5A06FDA
:100AE000F1D12948006800F4003010B101200090D5
:100AF00001E0002000900098012843D123480068BD
:100B000040F01000214908600846006820F003000A
:100B100008600846006840F0020008601A48406813
:100B2000194948600846406848600846406840F4F3
:100B3000806048600846406820F47C1048600846A1
:100B4000406840F4E81048600846006840F0807053
:100B5000086000BF0C48006800F000700028F9D061
:100B60000948406820F0030007494860084640688B
:100B700040F00200486000BF0348406800F00C00ED
:100B80000828F9D10CBD00000010024000200240EE
:100B900010B51348006840F001001149086008468C
:100BA0004068104908400E494860084600680E49F0
:100BB00008400B4908600846006820F4802008605F
:100BC0000846406820F4FE0048604FF41F0088602B
:100BD000FFF76AFF4FF000600449086010BD000095
:100BE000001002400000FFF8FFFFF6FE08ED00E0F5
:100BF00002480068401C0149086070471C00002042
:100C000021B1828942F40052828104E082894DF64A
:100C1000FF731A408281704710B54FF4E1301049DC
:100C20000860002088810C20488100200881C8804D
:100C300088800C4800F04CF801210A48FFF7E0FFDB
:100C40000749094800F044F801210748FFF7D8FF99
:100C5000012240F22551034800F015F810BD0000B4
:100C6000A800002000380140004800400246002053
:100C7000B1F5007F00D100BF13880B400BB10120FC
:100C800000E000207047F0B5034600240026002550
:100C9000002040F66A17B94200D100BF1846C1F3E0
:100CA000421401F01F06012707FA06F5012C01D1B5
:100CB0000C3004E0022C01D1103000E014301AB1E5
:100CC00007682F43076002E00768AF430760F0BD85
:100CD0002DE9F04786B005460E460024A24600BF27
:100CE000A1460027B08900B100BF2F462C8A4CF6E0
:100CF000FF700440F08804432C82AC894EF6F31058
:100D00000440B08831890843718908430443AC81A9
:100D1000AC8A4FF6FF400440B0890443AC8201A87E
:100D2000FFF746FE1F48874202D1DDF810A001E020
:100D3000DDF80CA0A88900F4004040B10AEBCA001D
:100D400000EB0A1031684900B0FBF1F807E00AEB4C
:100D5000CA0000EB0A1031688900B0FBF1F864208A
:100D6000B8FBF0F004012009642101FB1089A88977
:100D700000F4004040B1322000EBC900B0FBF1F0BC
:100D800000F00700044308E0322000EB0910642162
:100D9000B0FBF1F000F00F0004432C8106B0BDE879
:100DA000F087000000380140C1F3080282807047DC
:100DB00000BFFEE700BFFEE72DE9F04707463E46CD
:100DC00017480068864201D1002426E000F0D0FFD9
:100DD00075691448D0F800901348D0F8008000F0EE
:100DE000D9FF4D4501D0454501D1022415E00F48FA
:100DF00085420BD1B06A38B996F84800012801D174
:100E000002240AE0032408E0022406E008488542A0
:100E100000D00DB9042400E001242046BDE8F0878D
:100E20003C00002040000020440000206C01002015
:100E30005801002001464FF0FF30704770B504465E
:100E40000D462046FFF71EFE70BD00002DE9F04163
:100E50000646304600F064FA07463046FFF7ACFF1E
:100E6000044639461CA0FFF727FA214620A0FFF7C9
:100E700023FA24B9394625A0FFF71EFA21E0012CF8
:100E800004D1394628A0FFF717FA1AE0022C04D142
:100E900039462CA0FFF710FA13E0032C04D1394691
:100EA0002FA0FFF709FA0CE0042C04D1394634A036
:100EB000FFF702FA05E0052C03D1394637A0FFF70A
:100EC000FBF9304600F00AFF0546A9003AA0FFF7FB
:100ED000F3F9BDE8F081000063757272656E745FAE
:100EE0007461736B206E616D653A2025730D0A0085
:100EF00063757272656E745F7461736B2073746175
:100F00007475733A2025640D0A000000257320745F
:100F100061736B5F737461747573203A20655275E9
:100F20006E6E696E670D0A002573207461736B5FC6
:100F3000737461747573203A206552656164790D2C
:100F40000A0000002573207461736B5F7374617411
:100F50007573203A2065426C6F636B65640D0A00FF
:100F60002573207461736B5F737461747573203AB9
:100F7000206553757370656E6465640D0A0000002A
:100F80002573207461736B5F737461747573203A99
:100F9000206544656C657465640D0A0025732074D2
:100FA00061736B5F737461747573203A2065496E69
:100FB00076616C69640D0A0052656D61696E696ED7
:100FC0006720737461636B207370616365203A20DE
:100FD000256C640D0A00000088B021A207CA05AB89
:100FE00007C300BF012144F20500FFF7D1FCFFF762
:100FF00025FCFFF711FE1DA0FFF75EF96846FFF71D
:10100000D7FC00BF1F490098B0FBF1F421461EA099
:10101000FFF752F91B490198B0FBF1F4214622A0D9
:10102000FFF74AF917490298B0FBF1F4214625A0D1
:10103000FFF742F913490398B0FBF1F4214628A0C9
:10104000FFF73AF92DA0FFF737F934A0FFF734F98D
:1010500004E000F077F837A0FFF72EF9F9E7000079
:1010600068656C6C6F20746F6D0D0A0077656C633A
:101070006F6D6520746F20746F6D31383838383873
:101080000D0A000040420F000D0A535953434C4BC8
:101090005F4672657175656E6379203D2025642019
:1010A0004D487A0A000000000D0A48434C4B5F4649
:1010B00072657175656E6379203D202564204D4809
:1010C0007A0A00000D0A50434C4B315F467265713D
:1010D00075656E6379203D202564204D487A0A00AD
:1010E0000D0A50434C4B325F4672657175656E63F5
:1010F00079203D202564204D487A0A0077656C638D
:101100006F6D6520746F206D7920636F6D707574DD
:101110006572313331340D0A0000000077656C636D
:101120006F6D6520746F206D792032333133313328
:10113000310D0A0033333333333333333333330D29
:101140000A0000001CB5254925A0FFF7B5F829487D
:10115000012100234FF4FA72CDE9001026A129489D
:1011600001F04CF90446012C03D027A0FFF7A4F8A6
:1011700002E02DA0FFF7A0F83548022100234FF42C
:10118000FA72CDE9001033A1364801F037F9044670
:10119000012C03D034A0FFF78FF802E03BA0FFF74B
:1011A0008BF8454801231A464FF4FA61009043A09A
:1011B00001F0ACFA464908600846006818B945A035
:1011C000FFF77AF802E04BA0FFF776F800F094FE04
:1011D00050A0FFF771F800201CBD00001E28000879
:1011E00077656C636F6D6520746F205B25735D0D93
:1011F0000A00000024000020446174615F70616394
:101200006B00000089070008446174615F706163CE
:101210006B207461736B2063726561746520666115
:10122000696C65640D0A0000446174615F706163FC
:101230006B207461736B20637265617465207375D4
:10124000636365737366756C6C790D0A000000004A
:1012500028000020446174615F7472616E7366657A
:1012600072000000E1070008446174615F747261FC
:101270006E73666572207461736B2063726561744E
:1012800065206661696C65640D0A000044617461E3
:101290005F7472616E73666572207461736B206334
:1012A0007265617465207375636365737366756CCD
:1012B0006C790D0A000000008D1C000874657374C1
:1012C0003154696D65725F48616E646C6500000041
:1012D0002C0000204661696C656420746F20746581
:1012E00073743154696D65725F48616E646C650D2D
:1012F0000A0000007375636365737320746F207454
:101300006573743154696D65725F48616E646C65B4
:101310000D0A000032323232323232320D0A00000F
:10132000014611B90348006800E00846024602F190
:10133000340070473C0000202DE9F04105460E4680
:101340001C4807681C480068001D00F0B3FC50B939
:101350001948006890F82C10012088401749096846
:10136000814316480160681C38B936B112480168DB
:10137000091D134800F0F0FC1AE07C190E480068C3
:101380004460BC4207D20C480168091D0D48006842
:1013900000F0C8FC0CE008480168091D0A48006814
:1013A00000F0C0FC09480068844201D2074804608C
:1013B000BDE8F081500000203C00002054000020D7
:1013C0006C01002044000020400000206C00002040
:1013D00010B5044600F0CCFC23480068401C2249AC
:1013E00008602248006840B9204804600846006848
:1013F00001280DD100F0A4F90AE01D48006838B9B1
:101400001A480068C06AE16A884201D81748046037
:1014100018480068401C1749086094F82C100120F7
:10142000884015490968084313490860E16A01EBDF
:101430008101124A02EB8100211D00F08DFC00F0B9
:10144000A9FC0B48006868B108480068C06AE16AF6
:10145000884207D24FF0805009490860BFF34F8F90
:10146000BFF36F8F10BD00004C0000203C00002037
:10147000580000206800002054000020B800002020
:1014800004ED00E010B500F073FC0C48006890B962
:101490000B4800F037FC0B4800F034FC08480A49C0
:1014A000086008480949086000220C21042000F067
:1014B000C7FD0249086000F06DFC10BD80000020EF
:1014C0008001002094010020780000207C00002092
:1014D00010B516E000F04CFC0C48C068C468201D34
:1014E00000F0E8FB0A480068401E09490860094806
:1014F0000068401E0749086000F04CFC204600F0E0
:1015000055F8044800680028E4D110BD58010020B7
:101510004C0000204800002070B504460D46206CA9
:1015200070B1216CE0680144E160D4E902108842A6
:1015300001D32168E1602846226CE168FEF78AFF4A
:1015400070BD2DE9F04104460F4615464FF00008E6
:10155000A66B206C28B37DB93946226C6068FEF713
:1015600079FF216C606808446060D4E90101884219
:1015700017D32068606014E03946226CE068FEF7FB
:1015800069FF216CE068411AE1602168E0688842E7
:1015900003D2216CA068411AE160022D01D106B18D
:1015A000761E701CA0634046BDE8F08110B504466D
:1015B000206B00F0FFFB204600F0FCFB10BD00009C
:1015C0000146084A126812680AB9012200E00022A6
:1015D0000A600A6822B9034A1268D268106800E0FB
:1015E00000207047780000200A4A22F007000A4ACB
:1015F00010600022084B5A6044F2F832074B5A60E0
:1016000000221A60014644F2F8324A601A460A6023
:1016100070470000B00100208C00002094000020E2
:1016200000BFFFF755FF064800680128F9D94FF0C1
:10163000805004490860BFF34F8FBFF36F8FF0E70E
:10164000B800002004ED00E02DE9F04106460D460B
:1016500017469846069C0DB9246000E02760E663B3
:1016600025640121204600F009FDBDE8F0812DE947
:10167000F05F81460E4617469A46DDF828800C9C9E
:10168000B900A522206BFEF72AFF781E216B01EB23
:10169000800B2BF0070B86B1002507E0715D04F18C
:1016A00034004155705D00B902E06D1C102DF5D37A
:1016B00000BF00214320015502E0002084F83400DF
:1016C000B8F1050F01D34FF00408C4F82C80201D99
:1016D00000F025FB04F1180000F021FB2461C8F1A3
:1016E0000500A06164620020606484F848005246EE
:1016F0004946584600F0B8FA20600B9808B10B989C
:101700000460BDE8F09F2DE9F04705460E461746F8
:101710009846DDE908948CB1FFF7B4FE2560A66118
:10172000C4F81C80C4F82090201D00F0F8FA2FB1F6
:1017300094F8240040F0040084F82400BDE8F08709
:1017400010B5002407E004EB84010F4A02EB81008E
:1017500000F0D8FA641C052CF5D30C4800F0D2FA3E
:101760000B4800F0CFFA0B4800F0CCFA0A4800F022
:10177000C9FA0A4800F0C6FA044809490860044852
:101780000849086010BD0000B80000201C010020BE
:101790003001002044010020580100206C0100208D
:1017A00040000020440000202DE9F04104460D4691
:1017B00016461F464FF0000865602461B5420CD8FC
:1017C000F01BA169884202D34FF0010811E0211DEE
:1017D0000948006800F0A6FA0BE0BE4204D2BD4200
:1017E00002D34FF0010804E0211D0448006800F016
:1017F00099FA4046BDE8F0817C0000207800002086
:1018000070B5054600F0B4FAA86B08B9012400E0F1
:10181000002400F0BFFA204670BD70B5054600F008
:10182000A7FAA86BE96B884201D1012400E00024EB
:1018300000F0B0FA204670BDF8B505460E461448D3
:101840000068C068C468201D00F034FA94F82400D1
:1018500000F0040088B1A06941192B4632462046A9
:10186000FFF7A2FF78B1002003462A460146009008
:10187000204600F085FF074605E094F8240020F09C
:10188000010084F824002046216A8847F8BD000042
:101890007800002070B586B06DE0039800286ADB00
:1018A000059C606908B9012000E0002010B9201DE6
:1018B00000F000FA02A800F0BFF8054603980A28D5
:1018C00057D2DFE800F00905072D354606082E3609
:1018D00000BF00BF00BF00BF94F8240040F001002B
:1018E00084F824000498A269811803462A462046F9
:1018F000FFF75AFF98B12046216A884794F82400E0
:1019000000F0040058B1002000900498A16942182A
:1019100000231946204600F033FF064600BF29E0A9
:1019200000BF94F8240020F0010084F8240021E096
:1019300000BF94F8240040F0010084F824000498CB
:10194000A061A06941192B462A462046FFF72CFFCB
:1019500010E094F8240000F0020018B9204600F0CE
:1019600029FA05E094F8240020F0010084F824000E
:1019700000E000BF00BF002203A90448006800F097
:101980008DFC002889D106B070BD000080000020C9
:10199000F8B505460C4600F0E7FA684600F04CF84A
:1019A0000646009820BB44B9B54206D800F03AFE7E
:1019B00031462846FFF740FF1CE03CB10E48006866
:1019C000006808B9012000E000200446A91B224657
:1019D0000A48006800F01AFA00F024FE50B94FF0EF
:1019E000805007490860BFF34F8FBFF36F8F01E04E
:1019F00000F018FEF8BD00007C00002080000020F0
:101A000004ED00E00A490968096809B9012100E00C
:101A1000002121B14FF0FF31064A116006E0044970
:101A20000968C968C868034A4168116070470000C6
:101A3000400000206C00002070B5044600F01EFD40
:101A4000054607480068854204D200F00BF80120E3
:101A5000206001E00020206001480560284670BD3C
:101A6000880000202DE9F84328E01E480068C0687F
:101A700005681C480068C068C468201D00F01AF999
:101A80002046216A884794F8240000F00400A8B199
:101A9000A0694619AE4207D966602461211D11482C
:101AA000006800F03FF909E0002003462A4601469D
:101AB0000090204600F064FE804600BF09480068A0
:101AC000006808B9012000E000200028CDD00548BA
:101AD0000768054800680349086003480760BDE8D7
:101AE000F8830000780000207C00002002460021DE
:101AF00001E0521C491C1078A528FAD0890888B248
:101B0000704700BFBF2080F31188BFF34F8FBFF332
:101B10006F8F00BF00BFFEE708B500BF6846FFF744
:101B20004FFD044620460099FFF732FFFFF7B2FE53
:101B3000F4E770B5044600F01BF994F9455010E045
:101B4000606A08B9012000E0002038B904F12400DF
:101B500000F028FD18B100F0A5F900E003E0681ED0
:101B600045B2002DECDC00BFFF2084F8450000F0FA
:101B700011F900F0FDF894F9445010E0206908B91B
:101B8000012000E0002048B904F1100000F00AFD37
:101B900008B100F087F9681E45B200E001E0002DB1
:101BA000ECDC00BFFF2084F8440000F0F3F870BDC7
:101BB0002DE9F04104464FF0000800F0D5F9264821
:101BC000006820B9FFF710FD01202349086044B1E7
:101BD000083404F0070020B104F00700C0F1080049
:101BE0000444002C32D044F2F83084422ED21B4FF1
:101BF0003846056801E02F462D686868A04202D289
:101C000028680028F7D1164885421FD0386800F1AF
:101C10000808286838606868001B102810D92E1939
:101C20006868001B70606C6071680C4800E00068B8
:101C3000026852688A42FAD302683260066000BFC6
:101C4000084968680968081A0649086000F0EAFC53
:101C50004046BDE8F0810000A00000208C0000207C
:101C6000940000209C000020001F4FF08073036050
:101C7000001F21F001030360001F034B03601438B1
:101C80000260203870470000031B000810B50446AE
:101C9000024903A0FEF710FB10BD0000EC2700086E
:101CA00077656C636F6D6520746F205B25735D0DC8
:101CB0000A00000001460A69D1E901309860D1E9C3
:101CC000010358605068884201D188685060002044
:101CD00008611068401E1060106870472DE9F041DF
:101CE000044614B90648006800E0204607463D6BEC
:101CF0002846FFF7FBFE06463046BDE8F0810000AF
:101D00003C00002000F1080141604FF0FF3181608C
:101D100000F10801C16001610021016070470021EC
:101D20000161704710B502460B685C1C0CB9106964
:101D300007E002F1080000E04068446824689C4223
:101D4000FAD944684C604C68A160886041600A61BF
:101D50001468641C146010BD42684A6093688B600C
:101D6000936859609160086103685B1C0360704769
:101D700000BFBF2080F31188BFF34F8FBFF36F8F79
:101D800000BF03480068401C01490860704700001C
:101D9000A400002006480068401E05490860084667
:101DA000006820B9002080F3118800BF00BF704791
:101DB000A400002070B506463546B6B1083D2C4655
:101DC00000F0D2F86168094800E0006802685268D3
:101DD0008A42FAD302682260046005496068096893
:101DE00008440349086000F01DFC70BD8C00002011
:101DF0009C00002000204FF0E0210861886102482B
:101E000048610720086170473F1901002DE9F04142
:101E100005460E4617462C46FFF7AAFF94F94400E4
:101E2000401C10B9002084F8440094F94500401C7F
:101E300010B9002084F84500FFF7ACFFA06B28B96B
:101E40003A46314604F1240000F042F82046FFF7FC
:101E500070FEBDE8F081000070B50446002544B175
:101E600000F082F800212046FFF766FA00F0DAFB66
:101E700005463DB94FF0805003490860BFF34F8FCE
:101E8000BFF36F8F70BD000004ED00E003490968E7
:101E90000160034909684160704700006400002048
:101EA00050000020012001490860704760000020B8
:101EB00070B505460C460548016818312846FFF7FD
:101EC00031FF01212046FFF737FA70BD3C000020AA
:101ED00070B506460D46144606480168183130466E
:101EE000FFF73AFF0CB14FF0FF3521462846FFF7C8
:101EF00023FA70BD3C0000201CB5144800210B469D
:101F00008022CDE9001012A1134800F077FA0446B0
:101F1000012C02D100F016FC0446012C14D100BFA4
:101F2000BF2080F31188BFF34F8FBFF36F8F00BFC7
:101F30004FF0FF300949086001200949086000207E
:101F40000849086000F048F81CBD0000700000203F
:101F500049444C4500000000211600086C00002098
:101F6000580000205000002002480068401C014931
:101F700008607047740000201248006818B1012002
:101F8000114908601DE000200F4908600F480068F3
:101F9000B0FA80F0C0F11F0101EB81020C4B03EBA2
:101FA000820042685268426000F10802436893422E
:101FB00002D14268526842604268D268054B1A609A
:101FC00000BF704774000020600000205400002013
:101FD000B80000203C00002010B50A48006840F41A
:101FE0007F00084908600846006840F07F400860AC
:101FF000FFF700FF002004490860FEF701F9002008
:1020000010BD000020ED00E0A400002010B500BFCE
:10201000BF2080F31188BFF34F8FBFF36F8F00BFD6
:1020200000F032FA18B14FF080500449086000BF48
:10203000002080F3118800BF10BD000004ED00E017
:102040002DE9F84307460D4690460DB9002601E0FC
:1020500007FB05F606F14800FFF7AAFD04464CB160
:10206000A14609F1480943464A46294638460094A4
:10207000FFF7EAFA2046BDE8F883000070B5054690
:102080000E462C46FFF774FED4E90F12206801FBC0
:102090000200A0600020A06320686060E06B401E2A
:1020A000226C216800FB0211E160FF2084F84400EB
:1020B00084F845009EB9206908B9012000E000209D
:1020C000A8B904F1100000F06DFA80B14FF0805013
:1020D00009490860BFF34F8FBFF36F8F07E004F12A
:1020E0001000FFF70FFE04F12400FFF70BFEFFF7CF
:1020F00051FE012070BD000004ED00E02DE9FF431A
:1021000083B0074688461D464FF000093C4600BF95
:10211000FFF72EFEA06BE16B884201D3022D28D180
:102120002A4641462046FFF70CFA0646606A08B97F
:10213000012000E0002068B904F1240000F032FA28
:1021400088B14FF0805032490860BFF34F8FBFF322
:102150006F8F08E03EB14FF080502D490860BFF30B
:102160004F8FBFF36F8FFFF715FE012007B0BDE85B
:10217000F083059818B9FFF70DFE0020F6E7B9F1D6
:10218000000F04D101A8FFF781FE4FF00109FFF70E
:1021900001FEFFF7E9FEFFF7EBFD94F94400401C58
:1021A00010B9002084F8440094F94500401C10B98F
:1021B000002084F84500FFF7EDFD05A901A800F017
:1021C000EFF8F0B92046FFF728FBA0B104F11000AA
:1021D0000599FFF76DFE2046FFF7ABFC00F022FAF1
:1021E000002895D14FF0805009490860BFF34F8F08
:1021F000BFF36F8F8CE72046FFF79BFC00F012FACD
:1022000086E72046FFF795FC00F00CFA0020ADE7CA
:1022100004ED00E02DE9F05F05468A4616461F46AC
:102220002C4600BFBF21EFF3118081F31188BFF36B
:102230004F8FBFF36F8F00BF8146A06BE16B884269
:1022400001D3022F20D194F945B03A465146204699
:10225000FFF777F90BF1010070B9606A08B9012046
:1022600000E0002068B904F1240000F09BF940B1BF
:102270003EB10120306004E00BF1010040B284F86F
:1022800045004FF0010801E04FF0000800BF89F35E
:10229000118800BF4046BDE8F09F00002DE9F741DE
:1022A00083B005460F464FF000082C4600BFFFF7ED
:1022B0005FFDA66BF6B139462046FFF72DF9701E7B
:1022C000A063206908B9012000E0002060B904F192
:1022D000100000F067F938B14FF080502F490860C6
:1022E000BFF34F8FBFF36F8FFFF754FD012006B090
:1022F000BDE8F081059818B9FFF74CFD0020F6E71E
:10230000B8F1000F04D101A8FFF7C0FD4FF001089C
:10231000FFF740FDFFF728FEFFF72AFD94F9440080
:10232000401C10B9002084F8440094F94500401C7A
:1023300010B9002084F84500FFF72CFD05A901A87D
:1023400000F02EF8F0B92046FFF75AFAA0B104F1D8
:1023500024000599FFF7ACFD2046FFF7EAFB00F0EB
:1023600061F90028A3D14FF080500C490860BFF3F9
:102370004F8FBFF36F8F9AE72046FFF7DAFB00F02D
:1023800051F994E72046FFF7D4FB00F04BF92046C3
:10239000FFF736FA00288AD00020A8E704ED00E015
:1023A00070B506460C46FFF7E3FC124802687068F9
:1023B000131A2068401C08B9002517E00E49306840
:1023C0000968884204D07068904201D801250DE068
:1023D0002068984207D92068C01A20603046FFF76D
:1023E00055FD002502E0002020600125FFF7D2FC0A
:1023F000284670BD50000020640000202DE9FF4FEA
:1024000085B0804689461746DDE912ABB800FFF774
:10241000CFFB064656B14C20FFF7CAFB04460CB171
:10242000266304E03046FFF7C5FC00E000247CB1E1
:102430000020CDE900ABCDE902403A46494640468E
:10244000089BFFF714F92046FEF7C2FF012501E0C3
:102450004FF0FF35284609B0BDE8F08F05490968FF
:1024600009B9012005E00449096809B9022000E022
:1024700000207047580000207400002001490868BF
:1024800070470000500000202DE9F04100273A4835
:102490000068002863D139480068451C374805604A
:1024A0008DB93748D0F80080364800683449086054
:1024B0003448C0F8008034480068401C3249086045
:1024C000FFF7A0FA00BF3148006885423BD300BF48
:1024D0002B480068006808B9012000E0002020B106
:1024E0004FF0FF30294908602CE025480068C0689B
:1024F000C4686668B54202D22448066022E0201D06
:10250000FFF7D8FBA06A18B104F11800FFF7D2FB5F
:1025100094F82C10012088401D49096808431C4983
:102520000860E16A01EB81011A4A02EB8100211D7A
:10253000FFF712FC1849E06A0968C96A8842C7D3E4
:102540000127C5E700BF14480068C06A00EB80009F
:10255000104951F82000012800D9012704E00F4854
:102560000068401C0D4908600D48006800B1012753
:102570003846BDE8F08100007400002050000020C3
:102580004000002044000020640000206C00002077
:1025900054000020B80000203C0000205C00002017
:1025A0006000002070B50646F068C46804F11800A9
:1025B000FFF780FB15480068A8B9201DFFF77AFBDC
:1025C00094F82C10012088401149096808431049EB
:1025D0000860E16A01EB81010E4A02EB8100211DD6
:1025E000FFF7BAFB04E004F118010B48FFF7B4FB56
:1025F0000A49E06A0968C96A884204D901250120AC
:102600000749086000E00025284670BD74000020DE
:1026100054000020B8000020440100203C000020AD
:102620006000002070B500240026FFF7A1FB2E48B3
:102630000068401E2C4908600846006800284FD1F9
:102640002A48006800284BD024E02948C068C468A4
:1026500004F11800FFF72EFB201DFFF72BFB94F869
:102660002C1001208840234909680843214908604B
:10267000E16A01EB8101204A02EB8100211DFFF795
:102680006BFB1E49E06A0968C96A884202D30120CF
:102690001B4908601648006808B9012000E00020C6
:1026A0000028D2D00CB1FFF7ADF91648056865B126
:1026B00000BFFFF7E9FE10B10120114908606D1E4F
:1026C000002DF6D100200F4908600D48006838B190
:1026D000012630070C490860BFF34F8FBFF36F8F9F
:1026E000FFF758FB304670BD740000204C000020FE
:1026F0004401002054000020B80000203C000020CD
:10270000600000205C00002004ED00E02DE9FC47A3
:1027100005460E4617469846DDF828902820FFF714
:1027200047FA044654B1002084F8240043463A4650
:1027300031462846CDE90094FEF7E5FF2046BDE886
:10274000FC8700001CB50024FEF79CFE07480068CB
:1027500050B10748022100230A02CDE9001005A16B
:102760000648FFF74BFE044620461CBD80000020B3
:1027700084000020546D722053766300191B0008FA
:102780002DE9FE4305460C4616461F46DDF8288017
:102790004FF000091448006810B3009401960295A8
:1027A000062C15DAFFF75AFE022808D1002342460C
:1027B00069460D480068FFF7A1FC814610E0002340
:1027C0001A46694608480068FFF798FC814607E00A
:1027D00000233A46694604480068FFF71BFD81461E
:1027E0004846BDE8FE8300008000002074657374D5
:1027F0003154696D65725F48616E646C6543616CEC
:102800006C6261636B00446174615F7472616E73CA
:1028100066657200446174615F7061636B006D6135
:10282000696E5F4672656552546F73004C280008EC
:1028300000000020A80000006C010008F428000837
:10284000A800002060490000880100080000000086
:102850000102030401020304060708090204060832
:102860000000000000000000000000000000000068
:102870000000000000000000000000000100000057
:102880000000000000000000000000000000000048
:102890000000000000000000000000000000000038
:1028A0000000000000000000000000000000000028
:1028B0000000000000000000000000000000000018
:1028C0000000000000000000000000000000000008
:1028D00000000000000000000000000000000000F8
:1028E0000000000000000000F843000000000000AD
:0428F000AAAAAAAA3C
:0400000508000131BD
:00000001FF
